{
  "contractName": "BountiesMetaTxRelayer",
  "abi": [
    {
      "constant": true,
      "inputs": [
        {
          "name": "",
          "type": "address"
        }
      ],
      "name": "replayNonce",
      "outputs": [
        {
          "name": "",
          "type": "uint256"
        }
      ],
      "payable": false,
      "stateMutability": "view",
      "type": "function"
    },
    {
      "constant": true,
      "inputs": [],
      "name": "bountiesContract",
      "outputs": [
        {
          "name": "",
          "type": "address"
        }
      ],
      "payable": false,
      "stateMutability": "view",
      "type": "function"
    },
    {
      "inputs": [
        {
          "name": "_contract",
          "type": "address"
        }
      ],
      "payable": false,
      "stateMutability": "nonpayable",
      "type": "constructor"
    },
    {
      "constant": false,
      "inputs": [
        {
          "name": "signature",
          "type": "bytes"
        },
        {
          "name": "_issuers",
          "type": "address[]"
        },
        {
          "name": "_approvers",
          "type": "address[]"
        },
        {
          "name": "_data",
          "type": "string"
        },
        {
          "name": "_deadline",
          "type": "uint256"
        },
        {
          "name": "_token",
          "type": "address"
        },
        {
          "name": "_tokenVersion",
          "type": "uint256"
        },
        {
          "name": "_nonce",
          "type": "uint256"
        }
      ],
      "name": "metaIssueBounty",
      "outputs": [
        {
          "name": "",
          "type": "uint256"
        }
      ],
      "payable": false,
      "stateMutability": "nonpayable",
      "type": "function"
    },
    {
      "constant": false,
      "inputs": [
        {
          "name": "signature",
          "type": "bytes"
        },
        {
          "name": "_issuers",
          "type": "address[]"
        },
        {
          "name": "_approvers",
          "type": "address[]"
        },
        {
          "name": "_data",
          "type": "string"
        },
        {
          "name": "_deadline",
          "type": "uint256"
        },
        {
          "name": "_token",
          "type": "address"
        },
        {
          "name": "_tokenVersion",
          "type": "uint256"
        },
        {
          "name": "_depositAmount",
          "type": "uint256"
        },
        {
          "name": "_nonce",
          "type": "uint256"
        }
      ],
      "name": "metaIssueAndContribute",
      "outputs": [
        {
          "name": "",
          "type": "uint256"
        }
      ],
      "payable": true,
      "stateMutability": "payable",
      "type": "function"
    },
    {
      "constant": false,
      "inputs": [
        {
          "name": "_signature",
          "type": "bytes"
        },
        {
          "name": "_bountyId",
          "type": "uint256"
        },
        {
          "name": "_amount",
          "type": "uint256"
        },
        {
          "name": "_nonce",
          "type": "uint256"
        }
      ],
      "name": "metaContribute",
      "outputs": [],
      "payable": true,
      "stateMutability": "payable",
      "type": "function"
    },
    {
      "constant": false,
      "inputs": [
        {
          "name": "_signature",
          "type": "bytes"
        },
        {
          "name": "_bountyId",
          "type": "uint256"
        },
        {
          "name": "_contributionId",
          "type": "uint256"
        },
        {
          "name": "_nonce",
          "type": "uint256"
        }
      ],
      "name": "metaRefundContribution",
      "outputs": [],
      "payable": false,
      "stateMutability": "nonpayable",
      "type": "function"
    },
    {
      "constant": false,
      "inputs": [
        {
          "name": "_signature",
          "type": "bytes"
        },
        {
          "name": "_bountyId",
          "type": "uint256"
        },
        {
          "name": "_contributionIds",
          "type": "uint256[]"
        },
        {
          "name": "_nonce",
          "type": "uint256"
        }
      ],
      "name": "metaRefundMyContributions",
      "outputs": [],
      "payable": false,
      "stateMutability": "nonpayable",
      "type": "function"
    },
    {
      "constant": false,
      "inputs": [
        {
          "name": "_signature",
          "type": "bytes"
        },
        {
          "name": "_bountyId",
          "type": "uint256"
        },
        {
          "name": "_issuerId",
          "type": "uint256"
        },
        {
          "name": "_contributionIds",
          "type": "uint256[]"
        },
        {
          "name": "_nonce",
          "type": "uint256"
        }
      ],
      "name": "metaRefundContributions",
      "outputs": [],
      "payable": false,
      "stateMutability": "nonpayable",
      "type": "function"
    },
    {
      "constant": false,
      "inputs": [
        {
          "name": "_signature",
          "type": "bytes"
        },
        {
          "name": "_bountyId",
          "type": "uint256"
        },
        {
          "name": "_issuerId",
          "type": "uint256"
        },
        {
          "name": "_amounts",
          "type": "uint256[]"
        },
        {
          "name": "_nonce",
          "type": "uint256"
        }
      ],
      "name": "metaDrainBounty",
      "outputs": [],
      "payable": false,
      "stateMutability": "nonpayable",
      "type": "function"
    },
    {
      "constant": false,
      "inputs": [
        {
          "name": "_signature",
          "type": "bytes"
        },
        {
          "name": "_bountyId",
          "type": "uint256"
        },
        {
          "name": "_data",
          "type": "string"
        },
        {
          "name": "_nonce",
          "type": "uint256"
        }
      ],
      "name": "metaPerformAction",
      "outputs": [],
      "payable": false,
      "stateMutability": "nonpayable",
      "type": "function"
    },
    {
      "constant": false,
      "inputs": [
        {
          "name": "_signature",
          "type": "bytes"
        },
        {
          "name": "_bountyId",
          "type": "uint256"
        },
        {
          "name": "_fulfillers",
          "type": "address[]"
        },
        {
          "name": "_data",
          "type": "string"
        },
        {
          "name": "_nonce",
          "type": "uint256"
        }
      ],
      "name": "metaFulfillBounty",
      "outputs": [],
      "payable": false,
      "stateMutability": "nonpayable",
      "type": "function"
    },
    {
      "constant": false,
      "inputs": [
        {
          "name": "_signature",
          "type": "bytes"
        },
        {
          "name": "_bountyId",
          "type": "uint256"
        },
        {
          "name": "_fulfillmentId",
          "type": "uint256"
        },
        {
          "name": "_fulfillers",
          "type": "address[]"
        },
        {
          "name": "_data",
          "type": "string"
        },
        {
          "name": "_nonce",
          "type": "uint256"
        }
      ],
      "name": "metaUpdateFulfillment",
      "outputs": [],
      "payable": false,
      "stateMutability": "nonpayable",
      "type": "function"
    },
    {
      "constant": false,
      "inputs": [
        {
          "name": "_signature",
          "type": "bytes"
        },
        {
          "name": "_bountyId",
          "type": "uint256"
        },
        {
          "name": "_fulfillmentId",
          "type": "uint256"
        },
        {
          "name": "_approverId",
          "type": "uint256"
        },
        {
          "name": "_tokenAmounts",
          "type": "uint256[]"
        },
        {
          "name": "_nonce",
          "type": "uint256"
        }
      ],
      "name": "metaAcceptFulfillment",
      "outputs": [],
      "payable": false,
      "stateMutability": "nonpayable",
      "type": "function"
    },
    {
      "constant": false,
      "inputs": [
        {
          "name": "_signature",
          "type": "bytes"
        },
        {
          "name": "_bountyId",
          "type": "uint256"
        },
        {
          "name": "_fulfillers",
          "type": "address[]"
        },
        {
          "name": "_data",
          "type": "string"
        },
        {
          "name": "_approverId",
          "type": "uint256"
        },
        {
          "name": "_tokenAmounts",
          "type": "uint256[]"
        },
        {
          "name": "_nonce",
          "type": "uint256"
        }
      ],
      "name": "metaFulfillAndAccept",
      "outputs": [],
      "payable": false,
      "stateMutability": "nonpayable",
      "type": "function"
    },
    {
      "constant": false,
      "inputs": [
        {
          "name": "_signature",
          "type": "bytes"
        },
        {
          "name": "_bountyId",
          "type": "uint256"
        },
        {
          "name": "_issuerId",
          "type": "uint256"
        },
        {
          "name": "_issuers",
          "type": "address[]"
        },
        {
          "name": "_approvers",
          "type": "address[]"
        },
        {
          "name": "_data",
          "type": "string"
        },
        {
          "name": "_deadline",
          "type": "uint256"
        },
        {
          "name": "_nonce",
          "type": "uint256"
        }
      ],
      "name": "metaChangeBounty",
      "outputs": [],
      "payable": false,
      "stateMutability": "nonpayable",
      "type": "function"
    },
    {
      "constant": false,
      "inputs": [
        {
          "name": "_signature",
          "type": "bytes"
        },
        {
          "name": "_bountyId",
          "type": "uint256"
        },
        {
          "name": "_issuerId",
          "type": "uint256"
        },
        {
          "name": "_issuerIdToChange",
          "type": "uint256"
        },
        {
          "name": "_newIssuer",
          "type": "address"
        },
        {
          "name": "_nonce",
          "type": "uint256"
        }
      ],
      "name": "metaChangeIssuer",
      "outputs": [],
      "payable": false,
      "stateMutability": "nonpayable",
      "type": "function"
    },
    {
      "constant": false,
      "inputs": [
        {
          "name": "_signature",
          "type": "bytes"
        },
        {
          "name": "_bountyId",
          "type": "uint256"
        },
        {
          "name": "_issuerId",
          "type": "uint256"
        },
        {
          "name": "_approverId",
          "type": "uint256"
        },
        {
          "name": "_approver",
          "type": "address"
        },
        {
          "name": "_nonce",
          "type": "uint256"
        }
      ],
      "name": "metaChangeApprover",
      "outputs": [],
      "payable": false,
      "stateMutability": "nonpayable",
      "type": "function"
    },
    {
      "constant": false,
      "inputs": [
        {
          "name": "_signature",
          "type": "bytes"
        },
        {
          "name": "_bountyId",
          "type": "uint256"
        },
        {
          "name": "_issuerId",
          "type": "uint256"
        },
        {
          "name": "_data",
          "type": "string"
        },
        {
          "name": "_nonce",
          "type": "uint256"
        }
      ],
      "name": "metaChangeData",
      "outputs": [],
      "payable": false,
      "stateMutability": "nonpayable",
      "type": "function"
    },
    {
      "constant": false,
      "inputs": [
        {
          "name": "_signature",
          "type": "bytes"
        },
        {
          "name": "_bountyId",
          "type": "uint256"
        },
        {
          "name": "_issuerId",
          "type": "uint256"
        },
        {
          "name": "_deadline",
          "type": "uint256"
        },
        {
          "name": "_nonce",
          "type": "uint256"
        }
      ],
      "name": "metaChangeDeadline",
      "outputs": [],
      "payable": false,
      "stateMutability": "nonpayable",
      "type": "function"
    },
    {
      "constant": false,
      "inputs": [
        {
          "name": "_signature",
          "type": "bytes"
        },
        {
          "name": "_bountyId",
          "type": "uint256"
        },
        {
          "name": "_issuerId",
          "type": "uint256"
        },
        {
          "name": "_issuers",
          "type": "address[]"
        },
        {
          "name": "_nonce",
          "type": "uint256"
        }
      ],
      "name": "metaAddIssuers",
      "outputs": [],
      "payable": false,
      "stateMutability": "nonpayable",
      "type": "function"
    },
    {
      "constant": false,
      "inputs": [
        {
          "name": "_signature",
          "type": "bytes"
        },
        {
          "name": "_bountyId",
          "type": "uint256"
        },
        {
          "name": "_issuerId",
          "type": "uint256"
        },
        {
          "name": "_issuers",
          "type": "address[]"
        },
        {
          "name": "_nonce",
          "type": "uint256"
        }
      ],
      "name": "metaReplaceIssuers",
      "outputs": [],
      "payable": false,
      "stateMutability": "nonpayable",
      "type": "function"
    },
    {
      "constant": false,
      "inputs": [
        {
          "name": "_signature",
          "type": "bytes"
        },
        {
          "name": "_bountyId",
          "type": "uint256"
        },
        {
          "name": "_issuerId",
          "type": "uint256"
        },
        {
          "name": "_approvers",
          "type": "address[]"
        },
        {
          "name": "_nonce",
          "type": "uint256"
        }
      ],
      "name": "metaAddApprovers",
      "outputs": [],
      "payable": false,
      "stateMutability": "nonpayable",
      "type": "function"
    },
    {
      "constant": false,
      "inputs": [
        {
          "name": "_signature",
          "type": "bytes"
        },
        {
          "name": "_bountyId",
          "type": "uint256"
        },
        {
          "name": "_issuerId",
          "type": "uint256"
        },
        {
          "name": "_approvers",
          "type": "address[]"
        },
        {
          "name": "_nonce",
          "type": "uint256"
        }
      ],
      "name": "metaReplaceApprovers",
      "outputs": [],
      "payable": false,
      "stateMutability": "nonpayable",
      "type": "function"
    }
  ],
  "bytecode": "0x60806040523480156200001157600080fd5b50604051602080620058f4833981018060405262000033919081019062000090565b806000806101000a81548173ffffffffffffffffffffffffffffffffffffffff021916908373ffffffffffffffffffffffffffffffffffffffff16021790555050620000f0565b6000620000888251620000dc565b905092915050565b600060208284031215620000a357600080fd5b6000620000b3848285016200007a565b91505092915050565b600073ffffffffffffffffffffffffffffffffffffffff82169050919050565b6000620000e982620000bc565b9050919050565b6157f480620001006000396000f3fe608060405260043610610133576000357c0100000000000000000000000000000000000000000000000000000000900463ffffffff1680630dd72a7914610138578063103cd44f14610161578063105c93531461018a57806318900205146101b357806332a7856d146101dc57806336bb912214610205578063432326a91461022e578063484621d51461024a578063632ebc7b1461027357806367d407df1461029c57806372ffc6eb146102d95780637984dfe614610302578063926b4e5f1461032b57806393ee9f4f14610354578063a39da9421461037d578063a84d579d146103a8578063ae96762d146103d1578063b1e6bcbb146103fa578063c353a38a1461042a578063dc5065a814610453578063df4015fc1461047c578063ec34c4c0146104b9578063fbb9e715146104e2575b600080fd5b34801561014457600080fd5b5061015f600480360361015a919081019061453d565b61050b565b005b34801561016d57600080fd5b5061018860048036036101839190810190614873565b610813565b005b34801561019657600080fd5b506101b160048036036101ac9190810190614944565b610ae3565b005b3480156101bf57600080fd5b506101da60048036036101d59190810190614a92565b610d5b565b005b3480156101e857600080fd5b5061020360048036036101fe9190810190614d0e565b610ff3565b005b34801561021157600080fd5b5061022c60048036036102279190810190614761565b61123e565b005b61024860048036036102439190810190614b39565b611551565b005b34801561025657600080fd5b50610271600480360361026c91908101906146ce565b61184d565b005b34801561027f57600080fd5b5061029a6004803603610295919081019061463b565b611ada565b005b3480156102a857600080fd5b506102c360048036036102be919081019061421d565b611d47565b6040516102d09190615535565b60405180910390f35b3480156102e557600080fd5b5061030060048036036102fb9190810190614944565b611d5f565b005b34801561030e57600080fd5b5061032960048036036103249190810190614c55565b611fd7565b005b34801561033757600080fd5b50610352600480360361034d9190810190614944565b612259565b005b34801561036057600080fd5b5061037b60048036036103769190810190614b39565b6124d1565b005b34801561038957600080fd5b50610392612711565b60405161039f919061551a565b60405180910390f35b3480156103b457600080fd5b506103cf60048036036103ca9190810190614bb4565b612736565b005b3480156103dd57600080fd5b506103f860048036036103f391908101906149eb565b6129c7565b005b610414600480360361040f9190810190614358565b612c3f565b6040516104219190615535565b60405180910390f35b34801561043657600080fd5b50610451600480360361044c9190810190614944565b6130a7565b005b34801561045f57600080fd5b5061047a60048036036104759190810190614bb4565b61331f565b005b34801561048857600080fd5b506104a3600480360361049e9190810190614246565b6135b0565b6040516104b09190615535565b60405180910390f35b3480156104c557600080fd5b506104e060048036036104db919081019061447e565b613923565b005b3480156104ee57600080fd5b50610509600480360361050491908101906149eb565b613be8565b005b600030878787878787604051602001808873ffffffffffffffffffffffffffffffffffffffff1673ffffffffffffffffffffffffffffffffffffffff166c01000000000000000000000000028152601401807f6d65746146756c66696c6c416e64416363657074000000000000000000000000815250601401878152602001868051906020019060200280838360005b838110156105b657808201518184015260208101905061059b565b5050505090500185805190602001908083835b6020831015156105ee57805182526020820191506020810190506020830392506105c9565b6001836020036101000a038019825116818451168082178552505050505050905001848152602001838051906020019060200280838360005b83811015610642578082015181840152602081019050610627565b50505050905001828152602001975050505050505050604051602081830303815290604052805190602001209050600061067c828a613e60565b9050600073ffffffffffffffffffffffffffffffffffffffff168173ffffffffffffffffffffffffffffffffffffffff16141515156106ba57600080fd5b600160008273ffffffffffffffffffffffffffffffffffffffff1673ffffffffffffffffffffffffffffffffffffffff168152602001908152602001600020548314151561070757600080fd5b600160008273ffffffffffffffffffffffffffffffffffffffff1673ffffffffffffffffffffffffffffffffffffffff168152602001908152602001600020600081548092919060010191905055506000809054906101000a900473ffffffffffffffffffffffffffffffffffffffff1673ffffffffffffffffffffffffffffffffffffffff1663c22215b8828a8a8a8a8a6040518763ffffffff167c01000000000000000000000000000000000000000000000000000000000281526004016107d696959493929190615136565b600060405180830381600087803b1580156107f057600080fd5b505af1158015610804573d6000803e3d6000fd5b50505050505050505050505050565b6000308686868686604051602001808773ffffffffffffffffffffffffffffffffffffffff1673ffffffffffffffffffffffffffffffffffffffff166c01000000000000000000000000028152601401807f6d65746155706461746546756c66696c6c6d656e740000000000000000000000815250601501868152602001858152602001848051906020019060200280838360005b838110156108c35780820151818401526020810190506108a8565b5050505090500183805190602001908083835b6020831015156108fb57805182526020820191506020810190506020830392506108d6565b6001836020036101000a0380198251168184511680821785525050505050509050018281526020019650505050505050604051602081830303815290604052805190602001209050600061094f8289613e60565b9050600073ffffffffffffffffffffffffffffffffffffffff168173ffffffffffffffffffffffffffffffffffffffff161415151561098d57600080fd5b600160008273ffffffffffffffffffffffffffffffffffffffff1673ffffffffffffffffffffffffffffffffffffffff16815260200190815260200160002054831415156109da57600080fd5b600160008273ffffffffffffffffffffffffffffffffffffffff1673ffffffffffffffffffffffffffffffffffffffff168152602001908152602001600020600081548092919060010191905055506000809054906101000a900473ffffffffffffffffffffffffffffffffffffffff1673ffffffffffffffffffffffffffffffffffffffff1663c496045082898989896040518663ffffffff167c0100000000000000000000000000000000000000000000000000000000028152600401610aa795949392919061532f565b600060405180830381600087803b158015610ac157600080fd5b505af1158015610ad5573d6000803e3d6000fd5b505050505050505050505050565b60003085858585604051602001808673ffffffffffffffffffffffffffffffffffffffff1673ffffffffffffffffffffffffffffffffffffffff166c01000000000000000000000000028152601401807f6d6574615265706c616365497373756572730000000000000000000000000000815250601201858152602001848152602001838051906020019060200280838360005b83811015610b92578082015181840152602081019050610b77565b50505050905001828152602001955050505050506040516020818303038152906040528051906020012090506000610bca8288613e60565b9050600073ffffffffffffffffffffffffffffffffffffffff168173ffffffffffffffffffffffffffffffffffffffff1614151515610c0857600080fd5b600160008273ffffffffffffffffffffffffffffffffffffffff1673ffffffffffffffffffffffffffffffffffffffff1681526020019081526020016000205483141515610c5557600080fd5b600160008273ffffffffffffffffffffffffffffffffffffffff1673ffffffffffffffffffffffffffffffffffffffff168152602001908152602001600020600081548092919060010191905055506000809054906101000a900473ffffffffffffffffffffffffffffffffffffffff1673ffffffffffffffffffffffffffffffffffffffff16639d2bdb44828888886040518563ffffffff167c0100000000000000000000000000000000000000000000000000000000028152600401610d20949392919061525f565b600060405180830381600087803b158015610d3a57600080fd5b505af1158015610d4e573d6000803e3d6000fd5b5050505050505050505050565b60003085858585604051602001808673ffffffffffffffffffffffffffffffffffffffff1673ffffffffffffffffffffffffffffffffffffffff166c01000000000000000000000000028152601401807f6d6574614368616e676544617461000000000000000000000000000000000000815250600e0185815260200184815260200183805190602001908083835b602083101515610e0f5780518252602082019150602081019050602083039250610dea565b6001836020036101000a038019825116818451168082178552505050505050905001828152602001955050505050506040516020818303038152906040528051906020012090506000610e628288613e60565b9050600073ffffffffffffffffffffffffffffffffffffffff168173ffffffffffffffffffffffffffffffffffffffff1614151515610ea057600080fd5b600160008273ffffffffffffffffffffffffffffffffffffffff1673ffffffffffffffffffffffffffffffffffffffff1681526020019081526020016000205483141515610eed57600080fd5b600160008273ffffffffffffffffffffffffffffffffffffffff1673ffffffffffffffffffffffffffffffffffffffff168152602001908152602001600020600081548092919060010191905055506000809054906101000a900473ffffffffffffffffffffffffffffffffffffffff1673ffffffffffffffffffffffffffffffffffffffff16637ef8213c828888886040518563ffffffff167c0100000000000000000000000000000000000000000000000000000000028152600401610fb894939291906153dc565b600060405180830381600087803b158015610fd257600080fd5b505af1158015610fe6573d6000803e3d6000fd5b5050505050505050505050565b60003085858585604051602001808673ffffffffffffffffffffffffffffffffffffffff1673ffffffffffffffffffffffffffffffffffffffff166c01000000000000000000000000028152601401807f6d6574614368616e6765446561646c696e6500000000000000000000000000008152506012018581526020018481526020018381526020018281526020019550505050505060405160208183030381529060405280519060200120905060006110ad8288613e60565b9050600073ffffffffffffffffffffffffffffffffffffffff168173ffffffffffffffffffffffffffffffffffffffff16141515156110eb57600080fd5b600160008273ffffffffffffffffffffffffffffffffffffffff1673ffffffffffffffffffffffffffffffffffffffff168152602001908152602001600020548314151561113857600080fd5b600160008273ffffffffffffffffffffffffffffffffffffffff1673ffffffffffffffffffffffffffffffffffffffff168152602001908152602001600020600081548092919060010191905055506000809054906101000a900473ffffffffffffffffffffffffffffffffffffffff1673ffffffffffffffffffffffffffffffffffffffff1663aa17aaef828888886040518563ffffffff167c01000000000000000000000000000000000000000000000000000000000281526004016112039493929190615428565b600060405180830381600087803b15801561121d57600080fd5b505af1158015611231573d6000803e3d6000fd5b5050505050505050505050565b60003088888888888888604051602001808973ffffffffffffffffffffffffffffffffffffffff1673ffffffffffffffffffffffffffffffffffffffff166c01000000000000000000000000028152601401807f6d6574614368616e6765426f756e747900000000000000000000000000000000815250601001888152602001878152602001868051906020019060200280838360005b838110156112f05780820151818401526020810190506112d5565b50505050905001858051906020019060200280838360005b83811015611323578082015181840152602081019050611308565b5050505090500184805190602001908083835b60208310151561135b5780518252602082019150602081019050602083039250611336565b6001836020036101000a0380198251168184511680821785525050505050509050018381526020018281526020019850505050505050505060405160208183030381529060405280519060200120905060006113b7828b613e60565b9050600073ffffffffffffffffffffffffffffffffffffffff168173ffffffffffffffffffffffffffffffffffffffff16141515156113f557600080fd5b600160008273ffffffffffffffffffffffffffffffffffffffff1673ffffffffffffffffffffffffffffffffffffffff168152602001908152602001600020548314151561144257600080fd5b600160008273ffffffffffffffffffffffffffffffffffffffff1673ffffffffffffffffffffffffffffffffffffffff168152602001908152602001600020600081548092919060010191905055506000809054906101000a900473ffffffffffffffffffffffffffffffffffffffff1673ffffffffffffffffffffffffffffffffffffffff1663b178d768828b8b8b8b8b8b6040518863ffffffff167c010000000000000000000000000000000000000000000000000000000002815260040161151397969594939291906152ab565b600060405180830381600087803b15801561152d57600080fd5b505af1158015611541573d6000803e3d6000fd5b5050505050505050505050505050565b600030848484604051602001808573ffffffffffffffffffffffffffffffffffffffff1673ffffffffffffffffffffffffffffffffffffffff166c01000000000000000000000000028152601401807f6d657461436f6e74726962757465000000000000000000000000000000000000815250600e0184815260200183815260200182815260200194505050505060405160208183030381529060405280519060200120905060006116038287613e60565b9050600073ffffffffffffffffffffffffffffffffffffffff168173ffffffffffffffffffffffffffffffffffffffff161415151561164157600080fd5b600160008273ffffffffffffffffffffffffffffffffffffffff1673ffffffffffffffffffffffffffffffffffffffff168152602001908152602001600020548314151561168e57600080fd5b600160008273ffffffffffffffffffffffffffffffffffffffff1673ffffffffffffffffffffffffffffffffffffffff168152602001908152602001600020600081548092919060010191905055506000341115611798576000809054906101000a900473ffffffffffffffffffffffffffffffffffffffff1673ffffffffffffffffffffffffffffffffffffffff1663a08f793c348388886040518563ffffffff167c010000000000000000000000000000000000000000000000000000000002815260040161176193929190615060565b6000604051808303818588803b15801561177a57600080fd5b505af115801561178e573d6000803e3d6000fd5b5050505050611845565b6000809054906101000a900473ffffffffffffffffffffffffffffffffffffffff1673ffffffffffffffffffffffffffffffffffffffff1663a08f793c8287876040518463ffffffff167c010000000000000000000000000000000000000000000000000000000002815260040161181293929190615060565b600060405180830381600087803b15801561182c57600080fd5b505af1158015611840573d6000803e3d6000fd5b505050505b505050505050565b600030848484604051602001808573ffffffffffffffffffffffffffffffffffffffff1673ffffffffffffffffffffffffffffffffffffffff166c01000000000000000000000000028152601401807f6d657461506572666f726d416374696f6e00000000000000000000000000000081525060110184815260200183805190602001908083835b6020831015156118fa57805182526020820191506020810190506020830392506118d5565b6001836020036101000a038019825116818451168082178552505050505050905001828152602001945050505050604051602081830303815290604052805190602001209050600061194c8287613e60565b9050600073ffffffffffffffffffffffffffffffffffffffff168173ffffffffffffffffffffffffffffffffffffffff161415151561198a57600080fd5b600160008273ffffffffffffffffffffffffffffffffffffffff1673ffffffffffffffffffffffffffffffffffffffff16815260200190815260200160002054831415156119d757600080fd5b600160008273ffffffffffffffffffffffffffffffffffffffff1673ffffffffffffffffffffffffffffffffffffffff168152602001908152602001600020600081548092919060010191905055506000809054906101000a900473ffffffffffffffffffffffffffffffffffffffff1673ffffffffffffffffffffffffffffffffffffffff16634ac4e25a8287876040518463ffffffff167c0100000000000000000000000000000000000000000000000000000000028152600401611aa0939291906151ea565b600060405180830381600087803b158015611aba57600080fd5b505af1158015611ace573d6000803e3d6000fd5b50505050505050505050565b600030848484604051602001808573ffffffffffffffffffffffffffffffffffffffff1673ffffffffffffffffffffffffffffffffffffffff166c01000000000000000000000000028152601401807f6d657461526566756e644d79436f6e747269627574696f6e7300000000000000815250601901848152602001838051906020019060200280838360005b83811015611b82578082015181840152602081019050611b67565b505050509050018281526020019450505050506040516020818303038152906040528051906020012090506000611bb98287613e60565b9050600073ffffffffffffffffffffffffffffffffffffffff168173ffffffffffffffffffffffffffffffffffffffff1614151515611bf757600080fd5b600160008273ffffffffffffffffffffffffffffffffffffffff1673ffffffffffffffffffffffffffffffffffffffff1681526020019081526020016000205483141515611c4457600080fd5b600160008273ffffffffffffffffffffffffffffffffffffffff1673ffffffffffffffffffffffffffffffffffffffff168152602001908152602001600020600081548092919060010191905055506000809054906101000a900473ffffffffffffffffffffffffffffffffffffffff1673ffffffffffffffffffffffffffffffffffffffff1663edba70138287876040518463ffffffff167c0100000000000000000000000000000000000000000000000000000000028152600401611d0d939291906151ac565b600060405180830381600087803b158015611d2757600080fd5b505af1158015611d3b573d6000803e3d6000fd5b50505050505050505050565b60016020528060005260406000206000915090505481565b60003085858585604051602001808673ffffffffffffffffffffffffffffffffffffffff1673ffffffffffffffffffffffffffffffffffffffff166c01000000000000000000000000028152601401807f6d6574615265706c616365417070726f76657273000000000000000000000000815250601401858152602001848152602001838051906020019060200280838360005b83811015611e0e578082015181840152602081019050611df3565b50505050905001828152602001955050505050506040516020818303038152906040528051906020012090506000611e468288613e60565b9050600073ffffffffffffffffffffffffffffffffffffffff168173ffffffffffffffffffffffffffffffffffffffff1614151515611e8457600080fd5b600160008273ffffffffffffffffffffffffffffffffffffffff1673ffffffffffffffffffffffffffffffffffffffff1681526020019081526020016000205483141515611ed157600080fd5b600160008273ffffffffffffffffffffffffffffffffffffffff1673ffffffffffffffffffffffffffffffffffffffff168152602001908152602001600020600081548092919060010191905055506000809054906101000a900473ffffffffffffffffffffffffffffffffffffffff1673ffffffffffffffffffffffffffffffffffffffff16639d2bdb44828888886040518563ffffffff167c0100000000000000000000000000000000000000000000000000000000028152600401611f9c949392919061525f565b600060405180830381600087803b158015611fb657600080fd5b505af1158015611fca573d6000803e3d6000fd5b5050505050505050505050565b6000308686868686604051602001808773ffffffffffffffffffffffffffffffffffffffff1673ffffffffffffffffffffffffffffffffffffffff166c01000000000000000000000000028152601401807f6d65746141636365707446756c66696c6c6d656e740000000000000000000000815250601501868152602001858152602001848152602001838051906020019060200280838360005b8381101561208d578082015181840152602081019050612072565b50505050905001828152602001965050505050505060405160208183030381529060405280519060200120905060006120c68289613e60565b9050600073ffffffffffffffffffffffffffffffffffffffff168173ffffffffffffffffffffffffffffffffffffffff161415151561210457600080fd5b600160008273ffffffffffffffffffffffffffffffffffffffff1673ffffffffffffffffffffffffffffffffffffffff168152602001908152602001600020548314151561215157600080fd5b600160008273ffffffffffffffffffffffffffffffffffffffff1673ffffffffffffffffffffffffffffffffffffffff168152602001908152602001600020600081548092919060010191905055506000809054906101000a900473ffffffffffffffffffffffffffffffffffffffff1673ffffffffffffffffffffffffffffffffffffffff1662f27e3882898989896040518663ffffffff167c010000000000000000000000000000000000000000000000000000000002815260040161221d9594939291906154c0565b600060405180830381600087803b15801561223757600080fd5b505af115801561224b573d6000803e3d6000fd5b505050505050505050505050565b60003085858585604051602001808673ffffffffffffffffffffffffffffffffffffffff1673ffffffffffffffffffffffffffffffffffffffff166c01000000000000000000000000028152601401807f6d657461416464417070726f7665727300000000000000000000000000000000815250601001858152602001848152602001838051906020019060200280838360005b838110156123085780820151818401526020810190506122ed565b505050509050018281526020019550505050505060405160208183030381529060405280519060200120905060006123408288613e60565b9050600073ffffffffffffffffffffffffffffffffffffffff168173ffffffffffffffffffffffffffffffffffffffff161415151561237e57600080fd5b600160008273ffffffffffffffffffffffffffffffffffffffff1673ffffffffffffffffffffffffffffffffffffffff16815260200190815260200160002054831415156123cb57600080fd5b600160008273ffffffffffffffffffffffffffffffffffffffff1673ffffffffffffffffffffffffffffffffffffffff168152602001908152602001600020600081548092919060010191905055506000809054906101000a900473ffffffffffffffffffffffffffffffffffffffff1673ffffffffffffffffffffffffffffffffffffffff1663c6a8b42b828888886040518563ffffffff167c0100000000000000000000000000000000000000000000000000000000028152600401612496949392919061525f565b600060405180830381600087803b1580156124b057600080fd5b505af11580156124c4573d6000803e3d6000fd5b5050505050505050505050565b600030848484604051602001808573ffffffffffffffffffffffffffffffffffffffff1673ffffffffffffffffffffffffffffffffffffffff166c01000000000000000000000000028152601401807f6d657461526566756e64436f6e747269627574696f6e0000000000000000000081525060160184815260200183815260200182815260200194505050505060405160208183030381529060405280519060200120905060006125838287613e60565b9050600073ffffffffffffffffffffffffffffffffffffffff168173ffffffffffffffffffffffffffffffffffffffff16141515156125c157600080fd5b600160008273ffffffffffffffffffffffffffffffffffffffff1673ffffffffffffffffffffffffffffffffffffffff168152602001908152602001600020548314151561260e57600080fd5b600160008273ffffffffffffffffffffffffffffffffffffffff1673ffffffffffffffffffffffffffffffffffffffff168152602001908152602001600020600081548092919060010191905055506000809054906101000a900473ffffffffffffffffffffffffffffffffffffffff1673ffffffffffffffffffffffffffffffffffffffff166393c1ccc98287876040518463ffffffff167c01000000000000000000000000000000000000000000000000000000000281526004016126d793929190615228565b600060405180830381600087803b1580156126f157600080fd5b505af1158015612705573d6000803e3d6000fd5b50505050505050505050565b6000809054906101000a900473ffffffffffffffffffffffffffffffffffffffff1681565b6000308686868686604051602001808773ffffffffffffffffffffffffffffffffffffffff1673ffffffffffffffffffffffffffffffffffffffff166c01000000000000000000000000028152601401807f6d6574614368616e6765417070726f76657200000000000000000000000000008152506012018681526020018581526020018481526020018373ffffffffffffffffffffffffffffffffffffffff1673ffffffffffffffffffffffffffffffffffffffff166c01000000000000000000000000028152601401828152602001965050505050505060405160208183030381529060405280519060200120905060006128338289613e60565b9050600073ffffffffffffffffffffffffffffffffffffffff168173ffffffffffffffffffffffffffffffffffffffff161415151561287157600080fd5b600160008273ffffffffffffffffffffffffffffffffffffffff1673ffffffffffffffffffffffffffffffffffffffff16815260200190815260200160002054831415156128be57600080fd5b600160008273ffffffffffffffffffffffffffffffffffffffff1673ffffffffffffffffffffffffffffffffffffffff168152602001908152602001600020600081548092919060010191905055506000809054906101000a900473ffffffffffffffffffffffffffffffffffffffff1673ffffffffffffffffffffffffffffffffffffffff16632092e25982898989896040518663ffffffff167c010000000000000000000000000000000000000000000000000000000002815260040161298b95949392919061546d565b600060405180830381600087803b1580156129a557600080fd5b505af11580156129b9573d6000803e3d6000fd5b505050505050505050505050565b60003085858585604051602001808673ffffffffffffffffffffffffffffffffffffffff1673ffffffffffffffffffffffffffffffffffffffff166c01000000000000000000000000028152601401807f6d657461447261696e426f756e74790000000000000000000000000000000000815250600f01858152602001848152602001838051906020019060200280838360005b83811015612a76578082015181840152602081019050612a5b565b50505050905001828152602001955050505050506040516020818303038152906040528051906020012090506000612aae8288613e60565b9050600073ffffffffffffffffffffffffffffffffffffffff168173ffffffffffffffffffffffffffffffffffffffff1614151515612aec57600080fd5b600160008273ffffffffffffffffffffffffffffffffffffffff1673ffffffffffffffffffffffffffffffffffffffff1681526020019081526020016000205483141515612b3957600080fd5b600160008273ffffffffffffffffffffffffffffffffffffffff1673ffffffffffffffffffffffffffffffffffffffff168152602001908152602001600020600081548092919060010191905055506000809054906101000a900473ffffffffffffffffffffffffffffffffffffffff1673ffffffffffffffffffffffffffffffffffffffff16633756f3c8828888886040518563ffffffff167c0100000000000000000000000000000000000000000000000000000000028152600401612c049493929190615097565b600060405180830381600087803b158015612c1e57600080fd5b505af1158015612c32573d6000803e3d6000fd5b5050505050505050505050565b600080308a8a8a8a8a8a8a8a604051602001808a73ffffffffffffffffffffffffffffffffffffffff1673ffffffffffffffffffffffffffffffffffffffff166c01000000000000000000000000028152601401807f6d6574614973737565416e64436f6e7472696275746500000000000000000000815250601601898051906020019060200280838360005b83811015612ce7578082015181840152602081019050612ccc565b50505050905001888051906020019060200280838360005b83811015612d1a578082015181840152602081019050612cff565b5050505090500187805190602001908083835b602083101515612d525780518252602082019150602081019050602083039250612d2d565b6001836020036101000a0380198251168184511680821785525050505050509050018681526020018573ffffffffffffffffffffffffffffffffffffffff1673ffffffffffffffffffffffffffffffffffffffff166c0100000000000000000000000002815260140184815260200183815260200182815260200199505050505050505050506040516020818303038152906040528051906020012090506000612dfc828d613e60565b9050600073ffffffffffffffffffffffffffffffffffffffff168173ffffffffffffffffffffffffffffffffffffffff1614151515612e3a57600080fd5b600160008273ffffffffffffffffffffffffffffffffffffffff1673ffffffffffffffffffffffffffffffffffffffff1681526020019081526020016000205484141515612e8757600080fd5b600160008273ffffffffffffffffffffffffffffffffffffffff1673ffffffffffffffffffffffffffffffffffffffff168152602001908152602001600020600081548092919060010191905055506000341115612fbf576000809054906101000a900473ffffffffffffffffffffffffffffffffffffffff1673ffffffffffffffffffffffffffffffffffffffff166306060ae334838e8e8e8e8e8e8e6040518a63ffffffff167c0100000000000000000000000000000000000000000000000000000000028152600401612f64989796959493929190614fcd565b6020604051808303818588803b158015612f7d57600080fd5b505af1158015612f91573d6000803e3d6000fd5b50505050506040513d601f19601f82011682018060405250612fb69190810190614d9d565b9250505061309a565b6000809054906101000a900473ffffffffffffffffffffffffffffffffffffffff1673ffffffffffffffffffffffffffffffffffffffff166306060ae3828d8d8d8d8d8d8d6040518963ffffffff167c0100000000000000000000000000000000000000000000000000000000028152600401613043989796959493929190614fcd565b602060405180830381600087803b15801561305d57600080fd5b505af1158015613071573d6000803e3d6000fd5b505050506040513d601f19601f820116820180604052506130959190810190614d9d565b925050505b9998505050505050505050565b60003085858585604051602001808673ffffffffffffffffffffffffffffffffffffffff1673ffffffffffffffffffffffffffffffffffffffff166c01000000000000000000000000028152601401807f6d65746141646449737375657273000000000000000000000000000000000000815250600e01858152602001848152602001838051906020019060200280838360005b8381101561315657808201518184015260208101905061313b565b5050505090500182815260200195505050505050604051602081830303815290604052805190602001209050600061318e8288613e60565b9050600073ffffffffffffffffffffffffffffffffffffffff168173ffffffffffffffffffffffffffffffffffffffff16141515156131cc57600080fd5b600160008273ffffffffffffffffffffffffffffffffffffffff1673ffffffffffffffffffffffffffffffffffffffff168152602001908152602001600020548314151561321957600080fd5b600160008273ffffffffffffffffffffffffffffffffffffffff1673ffffffffffffffffffffffffffffffffffffffff168152602001908152602001600020600081548092919060010191905055506000809054906101000a900473ffffffffffffffffffffffffffffffffffffffff1673ffffffffffffffffffffffffffffffffffffffff1663c6a8b42b828888886040518563ffffffff167c01000000000000000000000000000000000000000000000000000000000281526004016132e4949392919061525f565b600060405180830381600087803b1580156132fe57600080fd5b505af1158015613312573d6000803e3d6000fd5b5050505050505050505050565b6000308686868686604051602001808773ffffffffffffffffffffffffffffffffffffffff1673ffffffffffffffffffffffffffffffffffffffff166c01000000000000000000000000028152601401807f6d6574614368616e6765497373756572000000000000000000000000000000008152506010018681526020018581526020018481526020018373ffffffffffffffffffffffffffffffffffffffff1673ffffffffffffffffffffffffffffffffffffffff166c010000000000000000000000000281526014018281526020019650505050505050604051602081830303815290604052805190602001209050600061341c8289613e60565b9050600073ffffffffffffffffffffffffffffffffffffffff168173ffffffffffffffffffffffffffffffffffffffff161415151561345a57600080fd5b600160008273ffffffffffffffffffffffffffffffffffffffff1673ffffffffffffffffffffffffffffffffffffffff16815260200190815260200160002054831415156134a757600080fd5b600160008273ffffffffffffffffffffffffffffffffffffffff1673ffffffffffffffffffffffffffffffffffffffff168152602001908152602001600020600081548092919060010191905055506000809054906101000a900473ffffffffffffffffffffffffffffffffffffffff1673ffffffffffffffffffffffffffffffffffffffff16639e64d9bf82898989896040518663ffffffff167c010000000000000000000000000000000000000000000000000000000002815260040161357495949392919061546d565b600060405180830381600087803b15801561358e57600080fd5b505af11580156135a2573d6000803e3d6000fd5b505050505050505050505050565b6000803089898989898989604051602001808973ffffffffffffffffffffffffffffffffffffffff1673ffffffffffffffffffffffffffffffffffffffff166c01000000000000000000000000028152601401807f6d6574614973737565426f756e74790000000000000000000000000000000000815250600f01888051906020019060200280838360005b8381101561365757808201518184015260208101905061363c565b50505050905001878051906020019060200280838360005b8381101561368a57808201518184015260208101905061366f565b5050505090500186805190602001908083835b6020831015156136c2578051825260208201915060208101905060208303925061369d565b6001836020036101000a0380198251168184511680821785525050505050509050018581526020018473ffffffffffffffffffffffffffffffffffffffff1673ffffffffffffffffffffffffffffffffffffffff166c01000000000000000000000000028152601401838152602001828152602001985050505050505050506040516020818303038152906040528051906020012090506000613765828c613e60565b9050600073ffffffffffffffffffffffffffffffffffffffff168173ffffffffffffffffffffffffffffffffffffffff16141515156137a357600080fd5b600160008273ffffffffffffffffffffffffffffffffffffffff1673ffffffffffffffffffffffffffffffffffffffff16815260200190815260200160002054841415156137f057600080fd5b600160008273ffffffffffffffffffffffffffffffffffffffff1673ffffffffffffffffffffffffffffffffffffffff168152602001908152602001600020600081548092919060010191905055506000809054906101000a900473ffffffffffffffffffffffffffffffffffffffff1673ffffffffffffffffffffffffffffffffffffffff1663567b3d2e828c8c8c8c8c8c6040518863ffffffff167c01000000000000000000000000000000000000000000000000000000000281526004016138c19796959493929190614f49565b602060405180830381600087803b1580156138db57600080fd5b505af11580156138ef573d6000803e3d6000fd5b505050506040513d601f19601f820116820180604052506139139190810190614d9d565b9250505098975050505050505050565b60003085858585604051602001808673ffffffffffffffffffffffffffffffffffffffff1673ffffffffffffffffffffffffffffffffffffffff166c01000000000000000000000000028152601401807f6d65746146756c66696c6c426f756e7479000000000000000000000000000000815250601101858152602001848051906020019060200280838360005b838110156139cc5780820151818401526020810190506139b1565b5050505090500183805190602001908083835b602083101515613a0457805182526020820191506020810190506020830392506139df565b6001836020036101000a038019825116818451168082178552505050505050905001828152602001955050505050506040516020818303038152906040528051906020012090506000613a578288613e60565b9050600073ffffffffffffffffffffffffffffffffffffffff168173ffffffffffffffffffffffffffffffffffffffff1614151515613a9557600080fd5b600160008273ffffffffffffffffffffffffffffffffffffffff1673ffffffffffffffffffffffffffffffffffffffff1681526020019081526020016000205483141515613ae257600080fd5b600160008273ffffffffffffffffffffffffffffffffffffffff1673ffffffffffffffffffffffffffffffffffffffff168152602001908152602001600020600081548092919060010191905055506000809054906101000a900473ffffffffffffffffffffffffffffffffffffffff1673ffffffffffffffffffffffffffffffffffffffff166397d76665828888886040518563ffffffff167c0100000000000000000000000000000000000000000000000000000000028152600401613bad94939291906150e3565b600060405180830381600087803b158015613bc757600080fd5b505af1158015613bdb573d6000803e3d6000fd5b5050505050505050505050565b60003085858585604051602001808673ffffffffffffffffffffffffffffffffffffffff1673ffffffffffffffffffffffffffffffffffffffff166c01000000000000000000000000028152601401807f6d657461526566756e64436f6e747269627574696f6e73000000000000000000815250601701858152602001848152602001838051906020019060200280838360005b83811015613c97578082015181840152602081019050613c7c565b50505050905001828152602001955050505050506040516020818303038152906040528051906020012090506000613ccf8288613e60565b9050600073ffffffffffffffffffffffffffffffffffffffff168173ffffffffffffffffffffffffffffffffffffffff1614151515613d0d57600080fd5b600160008273ffffffffffffffffffffffffffffffffffffffff1673ffffffffffffffffffffffffffffffffffffffff1681526020019081526020016000205483141515613d5a57600080fd5b600160008273ffffffffffffffffffffffffffffffffffffffff1673ffffffffffffffffffffffffffffffffffffffff168152602001908152602001600020600081548092919060010191905055506000809054906101000a900473ffffffffffffffffffffffffffffffffffffffff1673ffffffffffffffffffffffffffffffffffffffff1663a071fbd5828888886040518563ffffffff167c0100000000000000000000000000000000000000000000000000000000028152600401613e259493929190615390565b600060405180830381600087803b158015613e3f57600080fd5b505af1158015613e53573d6000803e3d6000fd5b5050505050505050505050565b60008060008060418551141515613e7d5760009350505050613f8c565b6020850151925060408501519150606085015160001a9050601b8160ff161015613ea857601b810190505b601b8160ff1614158015613ec05750601c8160ff1614155b15613ed15760009350505050613f8c565b60018660405160200180807f19457468657265756d205369676e6564204d6573736167653a0a333200000000815250601c018281526020019150506040516020818303038152906040528051906020012082858560405160008152602001604052604051808581526020018460ff1660ff1681526020018381526020018281526020019450505050506020604051602081039080840390855afa158015613f7c573d6000803e3d6000fd5b5050506020604051035193505050505b92915050565b6000613f9e8235615715565b905092915050565b6000613fb28235615727565b905092915050565b600082601f8301121515613fcd57600080fd5b8135613fe0613fdb8261557d565b615550565b9150818183526020840193506020810190508385602084028201111561400557600080fd5b60005b83811015614035578161401b8882613f92565b845260208401935060208301925050600181019050614008565b5050505092915050565b600082601f830112151561405257600080fd5b8135614065614060826155a5565b615550565b9150818183526020840193506020810190508385602084028201111561408a57600080fd5b60005b838110156140ba57816140a08882613fa6565b84526020840193506020830192505060018101905061408d565b5050505092915050565b600082601f83011215156140d757600080fd5b81356140ea6140e5826155cd565b615550565b9150818183526020840193506020810190508385602084028201111561410f57600080fd5b60005b8381101561413f578161412588826141f5565b845260208401935060208301925050600181019050614112565b5050505092915050565b600082601f830112151561415c57600080fd5b813561416f61416a826155f5565b615550565b9150808252602083016020830185838301111561418b57600080fd5b614196838284615767565b50505092915050565b600082601f83011215156141b257600080fd5b81356141c56141c082615621565b615550565b915080825260208301602083018583830111156141e157600080fd5b6141ec838284615767565b50505092915050565b60006142018235615739565b905092915050565b60006142158251615739565b905092915050565b60006020828403121561422f57600080fd5b600061423d84828501613f92565b91505092915050565b600080600080600080600080610100898b03121561426357600080fd5b600089013567ffffffffffffffff81111561427d57600080fd5b6142898b828c01614149565b985050602089013567ffffffffffffffff8111156142a657600080fd5b6142b28b828c0161403f565b975050604089013567ffffffffffffffff8111156142cf57600080fd5b6142db8b828c01613fba565b965050606089013567ffffffffffffffff8111156142f857600080fd5b6143048b828c0161419f565b95505060806143158b828c016141f5565b94505060a06143268b828c01613f92565b93505060c06143378b828c016141f5565b92505060e06143488b828c016141f5565b9150509295985092959890939650565b60008060008060008060008060006101208a8c03121561437757600080fd5b60008a013567ffffffffffffffff81111561439157600080fd5b61439d8c828d01614149565b99505060208a013567ffffffffffffffff8111156143ba57600080fd5b6143c68c828d0161403f565b98505060408a013567ffffffffffffffff8111156143e357600080fd5b6143ef8c828d01613fba565b97505060608a013567ffffffffffffffff81111561440c57600080fd5b6144188c828d0161419f565b96505060806144298c828d016141f5565b95505060a061443a8c828d01613f92565b94505060c061444b8c828d016141f5565b93505060e061445c8c828d016141f5565b92505061010061446e8c828d016141f5565b9150509295985092959850929598565b600080600080600060a0868803121561449657600080fd5b600086013567ffffffffffffffff8111156144b057600080fd5b6144bc88828901614149565b95505060206144cd888289016141f5565b945050604086013567ffffffffffffffff8111156144ea57600080fd5b6144f68882890161403f565b935050606086013567ffffffffffffffff81111561451357600080fd5b61451f8882890161419f565b9250506080614530888289016141f5565b9150509295509295909350565b600080600080600080600060e0888a03121561455857600080fd5b600088013567ffffffffffffffff81111561457257600080fd5b61457e8a828b01614149565b975050602061458f8a828b016141f5565b965050604088013567ffffffffffffffff8111156145ac57600080fd5b6145b88a828b0161403f565b955050606088013567ffffffffffffffff8111156145d557600080fd5b6145e18a828b0161419f565b94505060806145f28a828b016141f5565b93505060a088013567ffffffffffffffff81111561460f57600080fd5b61461b8a828b016140c4565b92505060c061462c8a828b016141f5565b91505092959891949750929550565b6000806000806080858703121561465157600080fd5b600085013567ffffffffffffffff81111561466b57600080fd5b61467787828801614149565b9450506020614688878288016141f5565b935050604085013567ffffffffffffffff8111156146a557600080fd5b6146b1878288016140c4565b92505060606146c2878288016141f5565b91505092959194509250565b600080600080608085870312156146e457600080fd5b600085013567ffffffffffffffff8111156146fe57600080fd5b61470a87828801614149565b945050602061471b878288016141f5565b935050604085013567ffffffffffffffff81111561473857600080fd5b6147448782880161419f565b9250506060614755878288016141f5565b91505092959194509250565b600080600080600080600080610100898b03121561477e57600080fd5b600089013567ffffffffffffffff81111561479857600080fd5b6147a48b828c01614149565b98505060206147b58b828c016141f5565b97505060406147c68b828c016141f5565b965050606089013567ffffffffffffffff8111156147e357600080fd5b6147ef8b828c0161403f565b955050608089013567ffffffffffffffff81111561480c57600080fd5b6148188b828c0161403f565b94505060a089013567ffffffffffffffff81111561483557600080fd5b6148418b828c0161419f565b93505060c06148528b828c016141f5565b92505060e06148638b828c016141f5565b9150509295985092959890939650565b60008060008060008060c0878903121561488c57600080fd5b600087013567ffffffffffffffff8111156148a657600080fd5b6148b289828a01614149565b96505060206148c389828a016141f5565b95505060406148d489828a016141f5565b945050606087013567ffffffffffffffff8111156148f157600080fd5b6148fd89828a0161403f565b935050608087013567ffffffffffffffff81111561491a57600080fd5b61492689828a0161419f565b92505060a061493789828a016141f5565b9150509295509295509295565b600080600080600060a0868803121561495c57600080fd5b600086013567ffffffffffffffff81111561497657600080fd5b61498288828901614149565b9550506020614993888289016141f5565b94505060406149a4888289016141f5565b935050606086013567ffffffffffffffff8111156149c157600080fd5b6149cd8882890161403f565b92505060806149de888289016141f5565b9150509295509295909350565b600080600080600060a08688031215614a0357600080fd5b600086013567ffffffffffffffff811115614a1d57600080fd5b614a2988828901614149565b9550506020614a3a888289016141f5565b9450506040614a4b888289016141f5565b935050606086013567ffffffffffffffff811115614a6857600080fd5b614a74888289016140c4565b9250506080614a85888289016141f5565b9150509295509295909350565b600080600080600060a08688031215614aaa57600080fd5b600086013567ffffffffffffffff811115614ac457600080fd5b614ad088828901614149565b9550506020614ae1888289016141f5565b9450506040614af2888289016141f5565b935050606086013567ffffffffffffffff811115614b0f57600080fd5b614b1b8882890161419f565b9250506080614b2c888289016141f5565b9150509295509295909350565b60008060008060808587031215614b4f57600080fd5b600085013567ffffffffffffffff811115614b6957600080fd5b614b7587828801614149565b9450506020614b86878288016141f5565b9350506040614b97878288016141f5565b9250506060614ba8878288016141f5565b91505092959194509250565b60008060008060008060c08789031215614bcd57600080fd5b600087013567ffffffffffffffff811115614be757600080fd5b614bf389828a01614149565b9650506020614c0489828a016141f5565b9550506040614c1589828a016141f5565b9450506060614c2689828a016141f5565b9350506080614c3789828a01613fa6565b92505060a0614c4889828a016141f5565b9150509295509295509295565b60008060008060008060c08789031215614c6e57600080fd5b600087013567ffffffffffffffff811115614c8857600080fd5b614c9489828a01614149565b9650506020614ca589828a016141f5565b9550506040614cb689828a016141f5565b9450506060614cc789828a016141f5565b935050608087013567ffffffffffffffff811115614ce457600080fd5b614cf089828a016140c4565b92505060a0614d0189828a016141f5565b9150509295509295509295565b600080600080600060a08688031215614d2657600080fd5b600086013567ffffffffffffffff811115614d4057600080fd5b614d4c88828901614149565b9550506020614d5d888289016141f5565b9450506040614d6e888289016141f5565b9350506060614d7f888289016141f5565b9250506080614d90888289016141f5565b9150509295509295909350565b600060208284031215614daf57600080fd5b6000614dbd84828501614209565b91505092915050565b614dcf816156d9565b82525050565b614dde816156c7565b82525050565b6000614def82615674565b808452602084019350614e018361564d565b60005b82811015614e3357614e17868351614dd5565b614e20826156a0565b9150602086019550600181019050614e04565b50849250505092915050565b6000614e4a8261567f565b808452602084019350614e5c8361565a565b60005b82811015614e8e57614e72868351614dc6565b614e7b826156ad565b9150602086019550600181019050614e5f565b50849250505092915050565b6000614ea58261568a565b808452602084019350614eb783615667565b60005b82811015614ee957614ecd868351614f3a565b614ed6826156ba565b9150602086019550600181019050614eba565b50849250505092915050565b614efe81615743565b82525050565b6000614f0f82615695565b808452614f23816020860160208601615776565b614f2c816157a9565b602085010191505092915050565b614f438161570b565b82525050565b600060e082019050614f5e600083018a614dc6565b8181036020830152614f708189614e3f565b90508181036040830152614f848188614de4565b90508181036060830152614f988187614f04565b9050614fa76080830186614f3a565b614fb460a0830185614dd5565b614fc160c0830184614f3a565b98975050505050505050565b600061010082019050614fe3600083018b614dc6565b8181036020830152614ff5818a614e3f565b905081810360408301526150098189614de4565b9050818103606083015261501d8188614f04565b905061502c6080830187614f3a565b61503960a0830186614dd5565b61504660c0830185614f3a565b61505360e0830184614f3a565b9998505050505050505050565b60006060820190506150756000830186614dc6565b6150826020830185614f3a565b61508f6040830184614f3a565b949350505050565b60006080820190506150ac6000830187614dc6565b6150b96020830186614f3a565b6150c66040830185614f3a565b81810360608301526150d88184614e9a565b905095945050505050565b60006080820190506150f86000830187614dd5565b6151056020830186614f3a565b81810360408301526151178185614e3f565b9050818103606083015261512b8184614f04565b905095945050505050565b600060c08201905061514b6000830189614dd5565b6151586020830188614f3a565b818103604083015261516a8187614e3f565b9050818103606083015261517e8186614f04565b905061518d6080830185614f3a565b81810360a083015261519f8184614e9a565b9050979650505050505050565b60006060820190506151c16000830186614dd5565b6151ce6020830185614f3a565b81810360408301526151e08184614e9a565b9050949350505050565b60006060820190506151ff6000830186614dd5565b61520c6020830185614f3a565b818103604083015261521e8184614f04565b9050949350505050565b600060608201905061523d6000830186614dd5565b61524a6020830185614f3a565b6152576040830184614f3a565b949350505050565b60006080820190506152746000830187614dd5565b6152816020830186614f3a565b61528e6040830185614f3a565b81810360608301526152a08184614e3f565b905095945050505050565b600060e0820190506152c0600083018a614dd5565b6152cd6020830189614f3a565b6152da6040830188614f3a565b81810360608301526152ec8187614e3f565b905081810360808301526153008186614e3f565b905081810360a08301526153148185614f04565b905061532360c0830184614f3a565b98975050505050505050565b600060a0820190506153446000830188614dd5565b6153516020830187614f3a565b61535e6040830186614f3a565b81810360608301526153708185614e3f565b905081810360808301526153848184614f04565b90509695505050505050565b60006080820190506153a56000830187614dd5565b6153b26020830186614f3a565b6153bf6040830185614f3a565b81810360608301526153d18184614e9a565b905095945050505050565b60006080820190506153f16000830187614dd5565b6153fe6020830186614f3a565b61540b6040830185614f3a565b818103606083015261541d8184614f04565b905095945050505050565b600060808201905061543d6000830187614dd5565b61544a6020830186614f3a565b6154576040830185614f3a565b6154646060830184614f3a565b95945050505050565b600060a0820190506154826000830188614dd5565b61548f6020830187614f3a565b61549c6040830186614f3a565b6154a96060830185614f3a565b6154b66080830184614dc6565b9695505050505050565b600060a0820190506154d56000830188614dd5565b6154e26020830187614f3a565b6154ef6040830186614f3a565b6154fc6060830185614f3a565b818103608083015261550e8184614e9a565b90509695505050505050565b600060208201905061552f6000830184614ef5565b92915050565b600060208201905061554a6000830184614f3a565b92915050565b6000604051905081810181811067ffffffffffffffff8211171561557357600080fd5b8060405250919050565b600067ffffffffffffffff82111561559457600080fd5b602082029050602081019050919050565b600067ffffffffffffffff8211156155bc57600080fd5b602082029050602081019050919050565b600067ffffffffffffffff8211156155e457600080fd5b602082029050602081019050919050565b600067ffffffffffffffff82111561560c57600080fd5b601f19601f8301169050602081019050919050565b600067ffffffffffffffff82111561563857600080fd5b601f19601f8301169050602081019050919050565b6000602082019050919050565b6000602082019050919050565b6000602082019050919050565b600081519050919050565b600081519050919050565b600081519050919050565b600081519050919050565b6000602082019050919050565b6000602082019050919050565b6000602082019050919050565b60006156d2826156eb565b9050919050565b60006156e4826156eb565b9050919050565b600073ffffffffffffffffffffffffffffffffffffffff82169050919050565b6000819050919050565b6000615720826156eb565b9050919050565b6000615732826156eb565b9050919050565b6000819050919050565b600061574e82615755565b9050919050565b6000615760826156eb565b9050919050565b82818337600083830152505050565b60005b83811015615794578082015181840152602081019050615779565b838111156157a3576000848401525b50505050565b6000601f19601f830116905091905056fea265627a7a723058206466f66cf2e44da8e8a193c34dad49ad3c996d6ac22cd20df7b579f4b4351e696c6578706572696d656e74616cf50037",
  "source": "pragma solidity 0.5.0;\npragma experimental ABIEncoderV2;\n\nimport \"./StandardBounties.sol\";\n\ncontract BountiesMetaTxRelayer {\n\n  // This contract serves as a relayer for meta txns being sent to the Bounties contract\n\n  StandardBounties public bountiesContract;\n  mapping(address => uint) public replayNonce;\n\n\n  constructor(address _contract) public {\n    bountiesContract = StandardBounties(_contract);\n  }\n\n  function metaIssueBounty(\n    bytes memory signature,\n    address payable [] memory _issuers,\n    address [] memory _approvers,\n    string memory _data,\n    uint _deadline,\n    address _token,\n    uint _tokenVersion,\n    uint _nonce)\n    public\n    returns (uint)\n    {\n    bytes32 metaHash = keccak256(abi.encodePacked(address(this),\n                                                  \"metaIssueBounty\",\n                                                  _issuers,\n                                                  _approvers,\n                                                  _data,\n                                                  _deadline,\n                                                  _token,\n                                                  _tokenVersion,\n                                                  _nonce));\n    address signer = getSigner(metaHash, signature);\n\n    //make sure signer doesn't come back as 0x0\n    require(signer != address(0));\n    require(_nonce == replayNonce[signer]);\n\n    //increase the nonce to prevent replay attacks\n    replayNonce[signer]++;\n    return bountiesContract.issueBounty(address(uint160(signer)),\n                                         _issuers,\n                                         _approvers,\n                                         _data,\n                                         _deadline,\n                                         _token,\n                                         _tokenVersion);\n  }\n\n  function metaIssueAndContribute(\n    bytes memory signature,\n    address payable [] memory _issuers,\n    address [] memory _approvers,\n    string memory _data,\n    uint _deadline,\n    address _token,\n    uint _tokenVersion,\n    uint _depositAmount,\n    uint _nonce)\n    public\n    payable\n    returns (uint)\n    {\n    bytes32 metaHash = keccak256(abi.encodePacked(address(this),\n                                                  \"metaIssueAndContribute\",\n                                                  _issuers,\n                                                  _approvers,\n                                                  _data,\n                                                  _deadline,\n                                                  _token,\n                                                  _tokenVersion,\n                                                  _depositAmount,\n                                                  _nonce));\n    address signer = getSigner(metaHash, signature);\n\n    //make sure signer doesn't come back as 0x0\n    require(signer != address(0));\n    require(_nonce == replayNonce[signer]);\n\n    //increase the nonce to prevent replay attacks\n    replayNonce[signer]++;\n\n    if (msg.value > 0){\n      return bountiesContract.issueAndContribute.value(msg.value)(address(uint160(signer)),\n                                                 _issuers,\n                                                 _approvers,\n                                                 _data,\n                                                 _deadline,\n                                                 _token,\n                                                 _tokenVersion,\n                                                 _depositAmount);\n    } else {\n      return bountiesContract.issueAndContribute(address(uint160(signer)),\n                                                 _issuers,\n                                                 _approvers,\n                                                 _data,\n                                                 _deadline,\n                                                 _token,\n                                                 _tokenVersion,\n                                                 _depositAmount);\n    }\n\n  }\n\n  function metaContribute(\n    bytes memory _signature,\n    uint _bountyId,\n    uint _amount,\n    uint _nonce)\n    public\n    payable\n    {\n    bytes32 metaHash = keccak256(abi.encodePacked(address(this),\n                                                  \"metaContribute\",\n                                                  _bountyId,\n                                                  _amount,\n                                                  _nonce));\n    address signer = getSigner(metaHash, _signature);\n\n    //make sure signer doesn't come back as 0x0\n    require(signer != address(0));\n    require(_nonce == replayNonce[signer]);\n\n    //increase the nonce to prevent replay attacks\n    replayNonce[signer]++;\n\n    if (msg.value > 0){\n      bountiesContract.contribute.value(msg.value)(address(uint160(signer)), _bountyId, _amount);\n    } else {\n      bountiesContract.contribute(address(uint160(signer)), _bountyId, _amount);\n    }\n  }\n\n\n  function metaRefundContribution(\n    bytes memory _signature,\n    uint _bountyId,\n    uint _contributionId,\n    uint _nonce)\n    public\n    {\n    bytes32 metaHash = keccak256(abi.encodePacked(address(this),\n                                                  \"metaRefundContribution\",\n                                                  _bountyId,\n                                                  _contributionId,\n                                                  _nonce));\n    address signer = getSigner(metaHash, _signature);\n\n    //make sure signer doesn't come back as 0x0\n    require(signer != address(0));\n    require(_nonce == replayNonce[signer]);\n\n    //increase the nonce to prevent replay attacks\n    replayNonce[signer]++;\n\n    bountiesContract.refundContribution(signer, _bountyId, _contributionId);\n  }\n\n  function metaRefundMyContributions(\n    bytes memory _signature,\n    uint _bountyId,\n    uint [] memory _contributionIds,\n    uint _nonce)\n    public\n    {\n    bytes32 metaHash = keccak256(abi.encodePacked(address(this),\n                                                  \"metaRefundMyContributions\",\n                                                  _bountyId,\n                                                  _contributionIds,\n                                                  _nonce));\n    address signer = getSigner(metaHash, _signature);\n\n    //make sure signer doesn't come back as 0x0\n    require(signer != address(0));\n    require(_nonce == replayNonce[signer]);\n\n    //increase the nonce to prevent replay attacks\n    replayNonce[signer]++;\n\n    bountiesContract.refundMyContributions(signer, _bountyId, _contributionIds);\n  }\n\n  function metaRefundContributions(\n    bytes memory _signature,\n    uint _bountyId,\n    uint _issuerId,\n    uint [] memory _contributionIds,\n    uint _nonce)\n    public\n    {\n    bytes32 metaHash = keccak256(abi.encodePacked(address(this),\n                                                  \"metaRefundContributions\",\n                                                  _bountyId,\n                                                  _issuerId,\n                                                  _contributionIds,\n                                                  _nonce));\n    address signer = getSigner(metaHash, _signature);\n\n    //make sure signer doesn't come back as 0x0\n    require(signer != address(0));\n    require(_nonce == replayNonce[signer]);\n\n    //increase the nonce to prevent replay attacks\n    replayNonce[signer]++;\n\n    bountiesContract.refundContributions(signer, _bountyId, _issuerId, _contributionIds);\n  }\n\n  function metaDrainBounty(\n    bytes memory _signature,\n    uint _bountyId,\n    uint _issuerId,\n    uint [] memory _amounts,\n    uint _nonce)\n    public\n    {\n    bytes32 metaHash = keccak256(abi.encodePacked(address(this),\n                                                  \"metaDrainBounty\",\n                                                  _bountyId,\n                                                  _issuerId,\n                                                  _amounts,\n                                                  _nonce));\n    address payable signer = address(uint160(getSigner(metaHash, _signature)));\n\n    //make sure signer doesn't come back as 0x0\n    require(signer != address(0));\n    require(_nonce == replayNonce[signer]);\n\n    //increase the nonce to prevent replay attacks\n    replayNonce[signer]++;\n\n    bountiesContract.drainBounty(signer, _bountyId, _issuerId, _amounts);\n  }\n\n  function metaPerformAction(\n    bytes memory _signature,\n    uint _bountyId,\n    string memory _data,\n    uint256 _nonce)\n    public\n    {\n    bytes32 metaHash = keccak256(abi.encodePacked(address(this),\n                                                  \"metaPerformAction\",\n                                                  _bountyId,\n                                                  _data,\n                                                  _nonce));\n    address signer = getSigner(metaHash, _signature);\n    //make sure signer doesn't come back as 0x0\n    require(signer != address(0));\n    require(_nonce == replayNonce[signer]);\n\n    //increase the nonce to prevent replay attacks\n    replayNonce[signer]++;\n\n    bountiesContract.performAction(signer, _bountyId, _data);\n  }\n\n  function metaFulfillBounty(\n    bytes memory _signature,\n    uint _bountyId,\n    address payable [] memory  _fulfillers,\n    string memory _data,\n    uint256 _nonce)\n    public\n    {\n    bytes32 metaHash = keccak256(abi.encodePacked(address(this),\n                                                  \"metaFulfillBounty\",\n                                                  _bountyId,\n                                                  _fulfillers,\n                                                  _data,\n                                                  _nonce));\n    address signer = getSigner(metaHash, _signature);\n    //make sure signer doesn't come back as 0x0\n    require(signer != address(0));\n    require(_nonce == replayNonce[signer]);\n\n    //increase the nonce to prevent replay attacks\n    replayNonce[signer]++;\n\n    bountiesContract.fulfillBounty(signer, _bountyId, _fulfillers, _data);\n  }\n\n  function metaUpdateFulfillment(\n    bytes memory _signature,\n    uint _bountyId,\n    uint _fulfillmentId,\n    address payable [] memory  _fulfillers,\n    string memory _data,\n    uint256 _nonce)\n    public\n    {\n    bytes32 metaHash = keccak256(abi.encodePacked(address(this),\n                                                  \"metaUpdateFulfillment\",\n                                                  _bountyId,\n                                                  _fulfillmentId,\n                                                  _fulfillers,\n                                                  _data,\n                                                  _nonce));\n    address signer = getSigner(metaHash, _signature);\n    //make sure signer doesn't come back as 0x0\n    require(signer != address(0));\n    require(_nonce == replayNonce[signer]);\n\n    //increase the nonce to prevent replay attacks\n    replayNonce[signer]++;\n\n    bountiesContract.updateFulfillment(signer, _bountyId, _fulfillmentId, _fulfillers, _data);\n  }\n\n  function metaAcceptFulfillment(\n    bytes memory _signature,\n    uint _bountyId,\n    uint _fulfillmentId,\n    uint _approverId,\n    uint [] memory _tokenAmounts,\n    uint256 _nonce)\n    public\n    {\n    bytes32 metaHash = keccak256(abi.encodePacked(address(this),\n                                                  \"metaAcceptFulfillment\",\n                                                  _bountyId,\n                                                  _fulfillmentId,\n                                                  _approverId,\n                                                  _tokenAmounts,\n                                                  _nonce));\n    address signer = getSigner(metaHash, _signature);\n    //make sure signer doesn't come back as 0x0\n    require(signer != address(0));\n    require(_nonce == replayNonce[signer]);\n\n    //increase the nonce to prevent replay attacks\n    replayNonce[signer]++;\n\n    bountiesContract.acceptFulfillment(signer,\n                       _bountyId,\n                       _fulfillmentId,\n                       _approverId,\n                       _tokenAmounts);\n  }\n\n  function metaFulfillAndAccept(\n    bytes memory _signature,\n    uint _bountyId,\n    address payable [] memory _fulfillers,\n    string memory _data,\n    uint _approverId,\n    uint [] memory _tokenAmounts,\n    uint256 _nonce)\n    public\n    {\n    bytes32 metaHash = keccak256(abi.encodePacked(address(this),\n                                                  \"metaFulfillAndAccept\",\n                                                  _bountyId,\n                                                  _fulfillers,\n                                                  _data,\n                                                  _approverId,\n                                                  _tokenAmounts,\n                                                  _nonce));\n    address signer = getSigner(metaHash, _signature);\n    //make sure signer doesn't come back as 0x0\n    require(signer != address(0));\n    require(_nonce == replayNonce[signer]);\n\n    //increase the nonce to prevent replay attacks\n    replayNonce[signer]++;\n\n    bountiesContract.fulfillAndAccept(signer,\n                      _bountyId,\n                      _fulfillers,\n                      _data,\n                      _approverId,\n                      _tokenAmounts);\n  }\n\n  function metaChangeBounty(\n    bytes memory _signature,\n    uint _bountyId,\n    uint _issuerId,\n    address payable [] memory _issuers,\n    address payable [] memory _approvers,\n    string memory _data,\n    uint _deadline,\n    uint256 _nonce)\n    public\n    {\n    bytes32 metaHash = keccak256(abi.encodePacked(address(this),\n                                                  \"metaChangeBounty\",\n                                                  _bountyId,\n                                                  _issuerId,\n                                                  _issuers,\n                                                  _approvers,\n                                                  _data,\n                                                  _deadline,\n                                                  _nonce));\n    address signer = getSigner(metaHash, _signature);\n    //make sure signer doesn't come back as 0x0\n    require(signer != address(0));\n    require(_nonce == replayNonce[signer]);\n\n    //increase the nonce to prevent replay attacks\n    replayNonce[signer]++;\n\n    bountiesContract.changeBounty(signer,\n                  _bountyId,\n                  _issuerId,\n                  _issuers,\n                  _approvers,\n                  _data,\n                  _deadline);\n  }\n\n  function metaChangeIssuer(\n    bytes memory _signature,\n    uint _bountyId,\n    uint _issuerId,\n    uint _issuerIdToChange,\n    address payable _newIssuer,\n    uint256 _nonce)\n    public\n    {\n    bytes32 metaHash = keccak256(abi.encodePacked(address(this),\n                                                  \"metaChangeIssuer\",\n                                                  _bountyId,\n                                                  _issuerId,\n                                                  _issuerIdToChange,\n                                                  _newIssuer,\n                                                  _nonce));\n    address signer = getSigner(metaHash, _signature);\n    //make sure signer doesn't come back as 0x0\n    require(signer != address(0));\n    require(_nonce == replayNonce[signer]);\n\n    //increase the nonce to prevent replay attacks\n    replayNonce[signer]++;\n\n    bountiesContract.changeIssuer(signer,\n                  _bountyId,\n                  _issuerId,\n                  _issuerIdToChange,\n                  _newIssuer);\n  }\n\n  function metaChangeApprover(\n    bytes memory _signature,\n    uint _bountyId,\n    uint _issuerId,\n    uint _approverId,\n    address payable _approver,\n    uint256 _nonce)\n    public\n    {\n    bytes32 metaHash = keccak256(abi.encodePacked(address(this),\n                                                  \"metaChangeApprover\",\n                                                  _bountyId,\n                                                  _issuerId,\n                                                  _approverId,\n                                                  _approver,\n                                                  _nonce));\n    address signer = getSigner(metaHash, _signature);\n    //make sure signer doesn't come back as 0x0\n    require(signer != address(0));\n    require(_nonce == replayNonce[signer]);\n\n    //increase the nonce to prevent replay attacks\n    replayNonce[signer]++;\n\n    bountiesContract.changeApprover(signer,\n                  _bountyId,\n                  _issuerId,\n                  _approverId,\n                  _approver);\n  }\n\n  function metaChangeData(\n    bytes memory _signature,\n    uint _bountyId,\n    uint _issuerId,\n    string memory _data,\n    uint256 _nonce)\n    public\n    {\n    bytes32 metaHash = keccak256(abi.encodePacked(address(this),\n                                                  \"metaChangeData\",\n                                                  _bountyId,\n                                                  _issuerId,\n                                                  _data,\n                                                  _nonce));\n    address signer = getSigner(metaHash, _signature);\n    //make sure signer doesn't come back as 0x0\n    require(signer != address(0));\n    require(_nonce == replayNonce[signer]);\n\n    //increase the nonce to prevent replay attacks\n    replayNonce[signer]++;\n\n    bountiesContract.changeData(signer,\n                _bountyId,\n                _issuerId,\n                _data);\n  }\n\n  function metaChangeDeadline(\n    bytes memory _signature,\n    uint _bountyId,\n    uint _issuerId,\n    uint  _deadline,\n    uint256 _nonce)\n    public\n    {\n    bytes32 metaHash = keccak256(abi.encodePacked(address(this),\n                                                  \"metaChangeDeadline\",\n                                                  _bountyId,\n                                                  _issuerId,\n                                                  _deadline,\n                                                  _nonce));\n    address signer = getSigner(metaHash, _signature);\n    //make sure signer doesn't come back as 0x0\n    require(signer != address(0));\n    require(_nonce == replayNonce[signer]);\n\n    //increase the nonce to prevent replay attacks\n    replayNonce[signer]++;\n\n    bountiesContract.changeDeadline(signer,\n                    _bountyId,\n                    _issuerId,\n                    _deadline);\n  }\n\n  function metaAddIssuers(\n    bytes memory _signature,\n    uint _bountyId,\n    uint _issuerId,\n    address payable [] memory _issuers,\n    uint256 _nonce)\n    public\n    {\n    bytes32 metaHash = keccak256(abi.encodePacked(address(this),\n                                                  \"metaAddIssuers\",\n                                                  _bountyId,\n                                                  _issuerId,\n                                                  _issuers,\n                                                  _nonce));\n    address signer = getSigner(metaHash, _signature);\n    //make sure signer doesn't come back as 0x0\n    require(signer != address(0));\n    require(_nonce == replayNonce[signer]);\n\n    //increase the nonce to prevent replay attacks\n    replayNonce[signer]++;\n\n    bountiesContract.addIssuers(signer,\n                _bountyId,\n                _issuerId,\n                _issuers);\n  }\n\n  function metaReplaceIssuers(\n    bytes memory _signature,\n    uint _bountyId,\n    uint _issuerId,\n    address payable [] memory _issuers,\n    uint256 _nonce)\n    public\n    {\n    bytes32 metaHash = keccak256(abi.encodePacked(address(this),\n                                                  \"metaReplaceIssuers\",\n                                                  _bountyId,\n                                                  _issuerId,\n                                                  _issuers,\n                                                  _nonce));\n    address signer = getSigner(metaHash, _signature);\n    //make sure signer doesn't come back as 0x0\n    require(signer != address(0));\n    require(_nonce == replayNonce[signer]);\n\n    //increase the nonce to prevent replay attacks\n    replayNonce[signer]++;\n\n    bountiesContract.replaceIssuers(signer,\n                    _bountyId,\n                    _issuerId,\n                    _issuers);\n  }\n\n  function metaAddApprovers(\n    bytes memory _signature,\n    uint _bountyId,\n    uint _issuerId,\n    address payable [] memory _approvers,\n    uint256 _nonce)\n    public\n    {\n    bytes32 metaHash = keccak256(abi.encodePacked(address(this),\n                                                  \"metaAddApprovers\",\n                                                  _bountyId,\n                                                  _issuerId,\n                                                  _approvers,\n                                                  _nonce));\n    address signer = getSigner(metaHash, _signature);\n    //make sure signer doesn't come back as 0x0\n    require(signer != address(0));\n    require(_nonce == replayNonce[signer]);\n\n    //increase the nonce to prevent replay attacks\n    replayNonce[signer]++;\n\n    bountiesContract.addIssuers(signer,\n                _bountyId,\n                _issuerId,\n                _approvers);\n  }\n\n  function metaReplaceApprovers(\n    bytes memory _signature,\n    uint _bountyId,\n    uint _issuerId,\n    address payable [] memory _approvers,\n    uint256 _nonce)\n    public\n    {\n    bytes32 metaHash = keccak256(abi.encodePacked(address(this),\n                                                  \"metaReplaceApprovers\",\n                                                  _bountyId,\n                                                  _issuerId,\n                                                  _approvers,\n                                                  _nonce));\n    address signer = getSigner(metaHash, _signature);\n    //make sure signer doesn't come back as 0x0\n    require(signer != address(0));\n    require(_nonce == replayNonce[signer]);\n\n    //increase the nonce to prevent replay attacks\n    replayNonce[signer]++;\n\n    bountiesContract.replaceIssuers(signer,\n                    _bountyId,\n                    _issuerId,\n                    _approvers);\n  }\n\n  function getSigner(\n    bytes32 _hash,\n    bytes memory _signature)\n    internal\n    pure\n    returns (address)\n  {\n    bytes32 r;\n    bytes32 s;\n    uint8 v;\n    if (_signature.length != 65) {\n      return address(0);\n    }\n    assembly {\n      r := mload(add(_signature, 32))\n      s := mload(add(_signature, 64))\n      v := byte(0, mload(add(_signature, 96)))\n    }\n    if (v < 27) {\n      v += 27;\n    }\n    if (v != 27 && v != 28) {\n      return address(0);\n    } else {\n      return ecrecover(keccak256(\n        abi.encodePacked(\"\\x19Ethereum Signed Message:\\n32\", _hash)\n      ), v, r, s);\n    }\n  }\n}\n",
  "sourcePath": "/Users/santteegt/GitRepositories/clones/StandardBounties/contracts/BountiesMetaTxRelayer.sol",
  "compiler": {
    "name": "solc",
    "version": "0.5.0+commit.1d4f565a.Emscripten.clang"
  },
  "schemaVersion": "3.0.9",
  "updatedAt": "2019-06-04T16:18:24.311Z",
  "devdoc": {
    "methods": {}
  },
  "userdoc": {
    "methods": {}
  }
}